{
  "contractName": "PERC20",
  "abi": [
    {
      "inputs": [],
      "stateMutability": "nonpayable",
      "type": "constructor"
    },
    {
      "anonymous": false,
      "inputs": [
        {
          "indexed": true,
          "internalType": "address",
          "name": "owner",
          "type": "address"
        },
        {
          "indexed": true,
          "internalType": "address",
          "name": "spender",
          "type": "address"
        },
        {
          "indexed": false,
          "internalType": "uint256",
          "name": "value",
          "type": "uint256"
        }
      ],
      "name": "Approval",
      "type": "event"
    },
    {
      "anonymous": false,
      "inputs": [
        {
          "indexed": true,
          "internalType": "address",
          "name": "previousOwner",
          "type": "address"
        },
        {
          "indexed": true,
          "internalType": "address",
          "name": "newOwner",
          "type": "address"
        }
      ],
      "name": "OwnershipTransferred",
      "type": "event"
    },
    {
      "anonymous": false,
      "inputs": [
        {
          "indexed": false,
          "internalType": "address",
          "name": "account",
          "type": "address"
        }
      ],
      "name": "Paused",
      "type": "event"
    },
    {
      "anonymous": false,
      "inputs": [
        {
          "indexed": true,
          "internalType": "bytes32",
          "name": "role",
          "type": "bytes32"
        },
        {
          "indexed": true,
          "internalType": "bytes32",
          "name": "previousAdminRole",
          "type": "bytes32"
        },
        {
          "indexed": true,
          "internalType": "bytes32",
          "name": "newAdminRole",
          "type": "bytes32"
        }
      ],
      "name": "RoleAdminChanged",
      "type": "event"
    },
    {
      "anonymous": false,
      "inputs": [
        {
          "indexed": true,
          "internalType": "bytes32",
          "name": "role",
          "type": "bytes32"
        },
        {
          "indexed": true,
          "internalType": "address",
          "name": "account",
          "type": "address"
        },
        {
          "indexed": true,
          "internalType": "address",
          "name": "sender",
          "type": "address"
        }
      ],
      "name": "RoleGranted",
      "type": "event"
    },
    {
      "anonymous": false,
      "inputs": [
        {
          "indexed": true,
          "internalType": "bytes32",
          "name": "role",
          "type": "bytes32"
        },
        {
          "indexed": true,
          "internalType": "address",
          "name": "account",
          "type": "address"
        },
        {
          "indexed": true,
          "internalType": "address",
          "name": "sender",
          "type": "address"
        }
      ],
      "name": "RoleRevoked",
      "type": "event"
    },
    {
      "anonymous": false,
      "inputs": [
        {
          "indexed": true,
          "internalType": "address",
          "name": "from",
          "type": "address"
        },
        {
          "indexed": true,
          "internalType": "address",
          "name": "to",
          "type": "address"
        },
        {
          "indexed": false,
          "internalType": "uint256",
          "name": "value",
          "type": "uint256"
        }
      ],
      "name": "Transfer",
      "type": "event"
    },
    {
      "anonymous": false,
      "inputs": [
        {
          "indexed": false,
          "internalType": "address",
          "name": "account",
          "type": "address"
        }
      ],
      "name": "Unpaused",
      "type": "event"
    },
    {
      "inputs": [],
      "name": "BURNER_ROLE",
      "outputs": [
        {
          "internalType": "bytes32",
          "name": "",
          "type": "bytes32"
        }
      ],
      "stateMutability": "view",
      "type": "function"
    },
    {
      "inputs": [],
      "name": "DEFAULT_ADMIN_ROLE",
      "outputs": [
        {
          "internalType": "bytes32",
          "name": "",
          "type": "bytes32"
        }
      ],
      "stateMutability": "view",
      "type": "function"
    },
    {
      "inputs": [],
      "name": "FREEZED_ROLE",
      "outputs": [
        {
          "internalType": "bytes32",
          "name": "",
          "type": "bytes32"
        }
      ],
      "stateMutability": "view",
      "type": "function"
    },
    {
      "inputs": [],
      "name": "MINTER_ROLE",
      "outputs": [
        {
          "internalType": "bytes32",
          "name": "",
          "type": "bytes32"
        }
      ],
      "stateMutability": "view",
      "type": "function"
    },
    {
      "inputs": [
        {
          "internalType": "address",
          "name": "owner",
          "type": "address"
        },
        {
          "internalType": "address",
          "name": "spender",
          "type": "address"
        }
      ],
      "name": "allowance",
      "outputs": [
        {
          "internalType": "uint256",
          "name": "",
          "type": "uint256"
        }
      ],
      "stateMutability": "view",
      "type": "function"
    },
    {
      "inputs": [
        {
          "internalType": "address",
          "name": "spender",
          "type": "address"
        },
        {
          "internalType": "uint256",
          "name": "amount",
          "type": "uint256"
        }
      ],
      "name": "approve",
      "outputs": [
        {
          "internalType": "bool",
          "name": "",
          "type": "bool"
        }
      ],
      "stateMutability": "nonpayable",
      "type": "function"
    },
    {
      "inputs": [
        {
          "internalType": "address",
          "name": "account",
          "type": "address"
        }
      ],
      "name": "balanceOf",
      "outputs": [
        {
          "internalType": "uint256",
          "name": "",
          "type": "uint256"
        }
      ],
      "stateMutability": "view",
      "type": "function"
    },
    {
      "inputs": [],
      "name": "cap",
      "outputs": [
        {
          "internalType": "uint256",
          "name": "",
          "type": "uint256"
        }
      ],
      "stateMutability": "view",
      "type": "function"
    },
    {
      "inputs": [],
      "name": "decimals",
      "outputs": [
        {
          "internalType": "uint8",
          "name": "",
          "type": "uint8"
        }
      ],
      "stateMutability": "view",
      "type": "function"
    },
    {
      "inputs": [
        {
          "internalType": "address",
          "name": "spender",
          "type": "address"
        },
        {
          "internalType": "uint256",
          "name": "subtractedValue",
          "type": "uint256"
        }
      ],
      "name": "decreaseAllowance",
      "outputs": [
        {
          "internalType": "bool",
          "name": "",
          "type": "bool"
        }
      ],
      "stateMutability": "nonpayable",
      "type": "function"
    },
    {
      "inputs": [
        {
          "internalType": "bytes32",
          "name": "role",
          "type": "bytes32"
        }
      ],
      "name": "getRoleAdmin",
      "outputs": [
        {
          "internalType": "bytes32",
          "name": "",
          "type": "bytes32"
        }
      ],
      "stateMutability": "view",
      "type": "function"
    },
    {
      "inputs": [
        {
          "internalType": "bytes32",
          "name": "role",
          "type": "bytes32"
        },
        {
          "internalType": "uint256",
          "name": "index",
          "type": "uint256"
        }
      ],
      "name": "getRoleMember",
      "outputs": [
        {
          "internalType": "address",
          "name": "",
          "type": "address"
        }
      ],
      "stateMutability": "view",
      "type": "function"
    },
    {
      "inputs": [
        {
          "internalType": "bytes32",
          "name": "role",
          "type": "bytes32"
        }
      ],
      "name": "getRoleMemberCount",
      "outputs": [
        {
          "internalType": "uint256",
          "name": "",
          "type": "uint256"
        }
      ],
      "stateMutability": "view",
      "type": "function"
    },
    {
      "inputs": [
        {
          "internalType": "bytes32",
          "name": "role",
          "type": "bytes32"
        },
        {
          "internalType": "address",
          "name": "account",
          "type": "address"
        }
      ],
      "name": "grantRole",
      "outputs": [],
      "stateMutability": "nonpayable",
      "type": "function"
    },
    {
      "inputs": [
        {
          "internalType": "bytes32",
          "name": "role",
          "type": "bytes32"
        },
        {
          "internalType": "address",
          "name": "account",
          "type": "address"
        }
      ],
      "name": "hasRole",
      "outputs": [
        {
          "internalType": "bool",
          "name": "",
          "type": "bool"
        }
      ],
      "stateMutability": "view",
      "type": "function"
    },
    {
      "inputs": [
        {
          "internalType": "address",
          "name": "spender",
          "type": "address"
        },
        {
          "internalType": "uint256",
          "name": "addedValue",
          "type": "uint256"
        }
      ],
      "name": "increaseAllowance",
      "outputs": [
        {
          "internalType": "bool",
          "name": "",
          "type": "bool"
        }
      ],
      "stateMutability": "nonpayable",
      "type": "function"
    },
    {
      "inputs": [],
      "name": "name",
      "outputs": [
        {
          "internalType": "string",
          "name": "",
          "type": "string"
        }
      ],
      "stateMutability": "view",
      "type": "function"
    },
    {
      "inputs": [],
      "name": "owner",
      "outputs": [
        {
          "internalType": "address",
          "name": "",
          "type": "address"
        }
      ],
      "stateMutability": "view",
      "type": "function"
    },
    {
      "inputs": [],
      "name": "paused",
      "outputs": [
        {
          "internalType": "bool",
          "name": "",
          "type": "bool"
        }
      ],
      "stateMutability": "view",
      "type": "function"
    },
    {
      "inputs": [
        {
          "internalType": "address",
          "name": "tokenAddress",
          "type": "address"
        },
        {
          "internalType": "uint256",
          "name": "tokenAmount",
          "type": "uint256"
        }
      ],
      "name": "recoverERC20",
      "outputs": [],
      "stateMutability": "nonpayable",
      "type": "function"
    },
    {
      "inputs": [],
      "name": "renounceOwnership",
      "outputs": [],
      "stateMutability": "nonpayable",
      "type": "function"
    },
    {
      "inputs": [
        {
          "internalType": "bytes32",
          "name": "role",
          "type": "bytes32"
        },
        {
          "internalType": "address",
          "name": "account",
          "type": "address"
        }
      ],
      "name": "renounceRole",
      "outputs": [],
      "stateMutability": "nonpayable",
      "type": "function"
    },
    {
      "inputs": [
        {
          "internalType": "bytes32",
          "name": "role",
          "type": "bytes32"
        },
        {
          "internalType": "address",
          "name": "account",
          "type": "address"
        }
      ],
      "name": "revokeRole",
      "outputs": [],
      "stateMutability": "nonpayable",
      "type": "function"
    },
    {
      "inputs": [],
      "name": "symbol",
      "outputs": [
        {
          "internalType": "string",
          "name": "",
          "type": "string"
        }
      ],
      "stateMutability": "view",
      "type": "function"
    },
    {
      "inputs": [],
      "name": "totalSupply",
      "outputs": [
        {
          "internalType": "uint256",
          "name": "",
          "type": "uint256"
        }
      ],
      "stateMutability": "view",
      "type": "function"
    },
    {
      "inputs": [
        {
          "internalType": "address",
          "name": "recipient",
          "type": "address"
        },
        {
          "internalType": "uint256",
          "name": "amount",
          "type": "uint256"
        }
      ],
      "name": "transfer",
      "outputs": [
        {
          "internalType": "bool",
          "name": "",
          "type": "bool"
        }
      ],
      "stateMutability": "nonpayable",
      "type": "function"
    },
    {
      "inputs": [
        {
          "internalType": "address",
          "name": "sender",
          "type": "address"
        },
        {
          "internalType": "address",
          "name": "recipient",
          "type": "address"
        },
        {
          "internalType": "uint256",
          "name": "amount",
          "type": "uint256"
        }
      ],
      "name": "transferFrom",
      "outputs": [
        {
          "internalType": "bool",
          "name": "",
          "type": "bool"
        }
      ],
      "stateMutability": "nonpayable",
      "type": "function"
    },
    {
      "inputs": [
        {
          "internalType": "address",
          "name": "newOwner",
          "type": "address"
        }
      ],
      "name": "transferOwnership",
      "outputs": [],
      "stateMutability": "nonpayable",
      "type": "function"
    },
    {
      "inputs": [
        {
          "internalType": "address",
          "name": "to",
          "type": "address"
        },
        {
          "internalType": "uint256",
          "name": "value",
          "type": "uint256"
        }
      ],
      "name": "mint",
      "outputs": [],
      "stateMutability": "nonpayable",
      "type": "function"
    },
    {
      "inputs": [
        {
          "internalType": "uint256",
          "name": "amount",
          "type": "uint256"
        }
      ],
      "name": "burn",
      "outputs": [],
      "stateMutability": "nonpayable",
      "type": "function"
    },
    {
      "inputs": [
        {
          "internalType": "address",
          "name": "account",
          "type": "address"
        },
        {
          "internalType": "uint256",
          "name": "amount",
          "type": "uint256"
        }
      ],
      "name": "burnFrom",
      "outputs": [],
      "stateMutability": "nonpayable",
      "type": "function"
    }
  ],
  "bytecode": "0x60806040523480156200001157600080fd5b50604080518082018252600c81526b2822a9219918102a37b5b2b760a11b60208083019182528351808501909452600684526505045524332360d41b90840152815169021e19e0c9bab240000093916200006f9160039190620006cb565b50805162000085906004906020840190620006cb565b50506005805460ff191660121790555080620000e8576040805162461bcd60e51b815260206004820152601560248201527f45524332304361707065643a2063617020697320300000000000000000000000604482015290519081900360640190fd5b6006556007805460ff1916905560006200010162000205565b60078054610100600160a81b0319166101006001600160a01b03841690810291909117909155604051919250906000907f8be0079c531659141344cd1fd0a4f28419497f9722a3daafe3b4186f6b6457e0908290a3506012670de0b6b3a76400006200016d8262000209565b6200018360006200017d62000205565b6200021f565b620001b27f9f2df0fed2c77648de5860a4cc508cd0818c85b8b8a1ab4ceeef8d981c8956a66200017d62000205565b620001e17f3c11d16cbaffd01df69ce1c404f6340ee057498f5f00246190ea54220576a8486200017d62000205565b8015620001fd57620001fd620001f66200022f565b8262000243565b505062000767565b3390565b6005805460ff191660ff92909216919091179055565b6200022b828262000352565b5050565b60075461010090046001600160a01b031690565b6001600160a01b0382166200029f576040805162461bcd60e51b815260206004820152601f60248201527f45524332303a206d696e7420746f20746865207a65726f206164647265737300604482015290519081900360640190fd5b620002ad60008383620003cd565b620002c9816002546200049c60201b62000fa01790919060201c565b6002556001600160a01b03821660009081526020818152604090912054620002fc91839062000fa06200049c821b17901c565b6001600160a01b0383166000818152602081815260408083209490945583518581529351929391927fddf252ad1be2c89b69c2b068fc378daa952ba7f163c4a11628f55a4df523b3ef9281900390910190a35050565b60008281526008602090815260409091206200037991839062000ffa62000500821b17901c565b156200022b576200038962000205565b6001600160a01b0316816001600160a01b0316837f2f8788117e7eff1d82e926ec794901d17c78024a50270940304540a733656f0d60405160405180910390a45050565b620003e8600080516020620023c48339815191528362000517565b15620004265760405162461bcd60e51b8152600401808060200182810382526024815260200180620023a06024913960400191505060405180910390fd5b62000441600080516020620023c48339815191528462000517565b156200047f5760405162461bcd60e51b8152600401808060200182810382526021815260200180620023e46021913960400191505060405180910390fd5b620004978383836200053d60201b6200100f1760201c565b505050565b600082820183811015620004f7576040805162461bcd60e51b815260206004820152601b60248201527f536166654d6174683a206164646974696f6e206f766572666c6f770000000000604482015290519081900360640190fd5b90505b92915050565b6000620004f7836001600160a01b0384166200059d565b60008281526008602090815260408220620004f791849062001063620005ec821b17901c565b620005558383836200060360201b620010781760201c565b6200055f620006a4565b15620004975760405162461bcd60e51b815260040180806020018281038252602a81526020018062002405602a913960400191505060405180910390fd5b6000620005ab8383620006ad565b620005e357508154600181810184556000848152602080822090930184905584548482528286019093526040902091909155620004fa565b506000620004fa565b6000620004f7836001600160a01b038416620006ad565b6200061b8383836200049760201b6200105e1760201c565b6001600160a01b038316620004975760065462000650826200063c620006c5565b6200049c60201b62000fa01790919060201c565b111562000497576040805162461bcd60e51b815260206004820152601960248201527f45524332304361707065643a2063617020657863656564656400000000000000604482015290519081900360640190fd5b60075460ff1690565b60009081526001919091016020526040902054151590565b60025490565b828054600181600116156101000203166002900490600052602060002090601f016020900481019282601f106200070e57805160ff19168380011785556200073e565b828001600101855582156200073e579182015b828111156200073e57825182559160200191906001019062000721565b506200074c92915062000750565b5090565b5b808211156200074c576000815560010162000751565b611c2980620007776000396000f3fe608060405234801561001057600080fd5b50600436106101e55760003560e01c806370a082311161010f578063a217fddf116100a2578063d539139311610071578063d53913931461059f578063d547741f146105a7578063dd62ed3e146105d3578063f2fde38b14610601576101e5565b8063a217fddf14610522578063a457c2d71461052a578063a9059cbb14610556578063ca15c87314610582576101e5565b80638da5cb5b116100de5780638da5cb5b146104a75780639010d07c146104cb57806391d14854146104ee57806395d89b411461051a576101e5565b806370a0823114610421578063715018a61461044757806379cc67901461044f5780638980f11f1461047b576101e5565b80632f2ff15d11610187578063395093511161015657806339509351146103a457806340c10f19146103d057806342966c68146103fc5780635c975abb14610419576101e5565b80632f2ff15d14610324578063313ce56714610352578063355274ea1461037057806336568abe14610378576101e5565b80631b74a3aa116101c35780631b74a3aa146102c157806323b872dd146102c9578063248a9ca3146102ff578063282c51f31461031c576101e5565b806306fdde03146101ea578063095ea7b31461026757806318160ddd146102a7575b600080fd5b6101f2610627565b6040805160208082528351818301528351919283929083019185019080838360005b8381101561022c578181015183820152602001610214565b50505050905090810190601f1680156102595780820380516001836020036101000a031916815260200191505b509250505060405180910390f35b6102936004803603604081101561027d57600080fd5b506001600160a01b0381351690602001356106bd565b604080519115158252519081900360200190f35b6102af6106db565b60408051918252519081900360200190f35b6102af6106e1565b610293600480360360608110156102df57600080fd5b506001600160a01b038135811691602081013590911690604001356106f3565b6102af6004803603602081101561031557600080fd5b503561077a565b6102af61078f565b6103506004803603604081101561033a57600080fd5b50803590602001356001600160a01b03166107b3565b005b61035a61081f565b6040805160ff9092168252519081900360200190f35b6102af610828565b6103506004803603604081101561038e57600080fd5b50803590602001356001600160a01b031661082e565b610293600480360360408110156103ba57600080fd5b506001600160a01b03813516906020013561088f565b610350600480360360408110156103e657600080fd5b506001600160a01b0381351690602001356108dd565b6103506004803603602081101561041257600080fd5b50356109af565b610293610a39565b6102af6004803603602081101561043757600080fd5b50356001600160a01b0316610a42565b610350610a5d565b6103506004803603604081101561046557600080fd5b506001600160a01b038135169060200135610b1c565b6103506004803603604081101561049157600080fd5b506001600160a01b038135169060200135610b9c565b6104af610c99565b604080516001600160a01b039092168252519081900360200190f35b6104af600480360360408110156104e157600080fd5b5080359060200135610cad565b6102936004803603604081101561050457600080fd5b50803590602001356001600160a01b0316610ccc565b6101f2610ce4565b6102af610d45565b6102936004803603604081101561054057600080fd5b506001600160a01b038135169060200135610d4a565b6102936004803603604081101561056c57600080fd5b506001600160a01b038135169060200135610db2565b6102af6004803603602081101561059857600080fd5b5035610dc6565b6102af610ddd565b610350600480360360408110156105bd57600080fd5b50803590602001356001600160a01b0316610e01565b6102af600480360360408110156105e957600080fd5b506001600160a01b0381358116916020013516610e5a565b6103506004803603602081101561061757600080fd5b50356001600160a01b0316610e85565b60038054604080516020601f60026000196101006001881615020190951694909404938401819004810282018101909252828152606093909290918301828280156106b35780601f10610688576101008083540402835291602001916106b3565b820191906000526020600020905b81548152906001019060200180831161069657829003601f168201915b5050505050905090565b60006106d16106ca6110f9565b84846110fd565b5060015b92915050565b60025490565b600080516020611a7383398151915281565b60006107008484846111e9565b6107708461070c6110f9565b61076b85604051806060016040528060288152602001611ae4602891396001600160a01b038a1660009081526001602052604081209061074a6110f9565b6001600160a01b031681526020810191909152604001600020549190611344565b6110fd565b5060019392505050565b60009081526008602052604090206002015490565b7f3c11d16cbaffd01df69ce1c404f6340ee057498f5f00246190ea54220576a84881565b6000828152600860205260409020600201546107d6906107d16110f9565b610ccc565b6108115760405162461bcd60e51b815260040180806020018281038252602f815260200180611990602f913960400191505060405180910390fd5b61081b82826113db565b5050565b60055460ff1690565b60065490565b6108366110f9565b6001600160a01b0316816001600160a01b0316146108855760405162461bcd60e51b815260040180806020018281038252602f815260200180611b9b602f913960400191505060405180910390fd5b61081b8282611444565b60006106d161089c6110f9565b8461076b85600160006108ad6110f9565b6001600160a01b03908116825260208083019390935260409182016000908120918c168152925290205490610fa0565b6108f5600080516020611a7383398151915283610ccc565b156109315760405162461bcd60e51b8152600401808060200182810382526024815260200180611a4f6024913960400191505060405180910390fd5b61095b7f9f2df0fed2c77648de5860a4cc508cd0818c85b8b8a1ab4ceeef8d981c8956a633610ccc565b6109a5576040805162461bcd60e51b815260206004820152601660248201527521b0b63632b91034b9903737ba10309036b4b73a32b960511b604482015290519081900360640190fd5b61081b82826114ad565b6109db7f3c11d16cbaffd01df69ce1c404f6340ee057498f5f00246190ea54220576a8486107d16110f9565b610a25576040805162461bcd60e51b815260206004820152601660248201527521b0b63632b91034b9903737ba103090313ab93732b960511b604482015290519081900360640190fd5b610a36610a306110f9565b8261159d565b50565b60075460ff1690565b6001600160a01b031660009081526020819052604090205490565b610a656110f9565b60075461010090046001600160a01b03908116911614610acc576040805162461bcd60e51b815260206004820181905260248201527f4f776e61626c653a2063616c6c6572206973206e6f7420746865206f776e6572604482015290519081900360640190fd5b60075460405160009161010090046001600160a01b0316907f8be0079c531659141344cd1fd0a4f28419497f9722a3daafe3b4186f6b6457e0908390a360078054610100600160a81b0319169055565b610b487f3c11d16cbaffd01df69ce1c404f6340ee057498f5f00246190ea54220576a8486107d16110f9565b610b92576040805162461bcd60e51b815260206004820152601660248201527521b0b63632b91034b9903737ba103090313ab93732b960511b604482015290519081900360640190fd5b61081b828261159d565b610ba46110f9565b60075461010090046001600160a01b03908116911614610c0b576040805162461bcd60e51b815260206004820181905260248201527f4f776e61626c653a2063616c6c6572206973206e6f7420746865206f776e6572604482015290519081900360640190fd5b816001600160a01b031663a9059cbb610c22610c99565b836040518363ffffffff1660e01b815260040180836001600160a01b0316815260200182815260200192505050602060405180830381600087803b158015610c6957600080fd5b505af1158015610c7d573d6000803e3d6000fd5b505050506040513d6020811015610c9357600080fd5b50505050565b60075461010090046001600160a01b031690565b6000828152600860205260408120610cc59083611699565b9392505050565b6000828152600860205260408120610cc59083611063565b60048054604080516020601f60026000196101006001881615020190951694909404938401819004810282018101909252828152606093909290918301828280156106b35780601f10610688576101008083540402835291602001916106b3565b600081565b60006106d1610d576110f9565b8461076b85604051806060016040528060258152602001611b766025913960016000610d816110f9565b6001600160a01b03908116825260208083019390935260409182016000908120918d16815292529020549190611344565b60006106d1610dbf6110f9565b84846111e9565b60008181526008602052604081206106d5906116a5565b7f9f2df0fed2c77648de5860a4cc508cd0818c85b8b8a1ab4ceeef8d981c8956a681565b600082815260086020526040902060020154610e1f906107d16110f9565b6108855760405162461bcd60e51b8152600401808060200182810382526030815260200180611a936030913960400191505060405180910390fd5b6001600160a01b03918216600090815260016020908152604080832093909416825291909152205490565b610e8d6110f9565b60075461010090046001600160a01b03908116911614610ef4576040805162461bcd60e51b815260206004820181905260248201527f4f776e61626c653a2063616c6c6572206973206e6f7420746865206f776e6572604482015290519081900360640190fd5b6001600160a01b038116610f395760405162461bcd60e51b81526004018080602001828103825260268152602001806119e16026913960400191505060405180910390fd5b6007546040516001600160a01b0380841692610100900416907f8be0079c531659141344cd1fd0a4f28419497f9722a3daafe3b4186f6b6457e090600090a3600780546001600160a01b0390921661010002610100600160a81b0319909216919091179055565b600082820183811015610cc5576040805162461bcd60e51b815260206004820152601b60248201527f536166654d6174683a206164646974696f6e206f766572666c6f770000000000604482015290519081900360640190fd5b6000610cc5836001600160a01b0384166116b0565b61101a838383611078565b611022610a39565b1561105e5760405162461bcd60e51b815260040180806020018281038252602a815260200180611bca602a913960400191505060405180910390fd5b505050565b6000610cc5836001600160a01b0384166116fa565b61108383838361105e565b6001600160a01b03831661105e576006546110a6826110a06106db565b90610fa0565b111561105e576040805162461bcd60e51b815260206004820152601960248201527f45524332304361707065643a2063617020657863656564656400000000000000604482015290519081900360640190fd5b3390565b6001600160a01b0383166111425760405162461bcd60e51b8152600401808060200182810382526024815260200180611b526024913960400191505060405180910390fd5b6001600160a01b0382166111875760405162461bcd60e51b8152600401808060200182810382526022815260200180611a076022913960400191505060405180910390fd5b6001600160a01b03808416600081815260016020908152604080832094871680845294825291829020859055815185815291517f8c5be1e5ebec7d5bd14f71427d1e84f3dd0314c0f7b2291e5b200ac8c7c3b9259281900390910190a3505050565b6001600160a01b03831661122e5760405162461bcd60e51b8152600401808060200182810382526025815260200180611b2d6025913960400191505060405180910390fd5b6001600160a01b0382166112735760405162461bcd60e51b815260040180806020018281038252602381526020018061196d6023913960400191505060405180910390fd5b61127e838383611712565b6112bb81604051806060016040528060268152602001611a29602691396001600160a01b0386166000908152602081905260409020549190611344565b6001600160a01b0380851660009081526020819052604080822093909355908416815220546112ea9082610fa0565b6001600160a01b038084166000818152602081815260409182902094909455805185815290519193928716927fddf252ad1be2c89b69c2b068fc378daa952ba7f163c4a11628f55a4df523b3ef92918290030190a3505050565b600081848411156113d35760405162461bcd60e51b81526004018080602001828103825283818151815260200191508051906020019080838360005b83811015611398578181015183820152602001611380565b50505050905090810190601f1680156113c55780820380516001836020036101000a031916815260200191505b509250505060405180910390fd5b505050900390565b60008281526008602052604090206113f39082610ffa565b1561081b576114006110f9565b6001600160a01b0316816001600160a01b0316837f2f8788117e7eff1d82e926ec794901d17c78024a50270940304540a733656f0d60405160405180910390a45050565b600082815260086020526040902061145c90826117c5565b1561081b576114696110f9565b6001600160a01b0316816001600160a01b0316837ff6391f5c32d9c69d2a47ea670b442974b53935d1edc7fd64eb21e047a839171b60405160405180910390a45050565b6001600160a01b038216611508576040805162461bcd60e51b815260206004820152601f60248201527f45524332303a206d696e7420746f20746865207a65726f206164647265737300604482015290519081900360640190fd5b61151460008383611712565b6002546115219082610fa0565b6002556001600160a01b0382166000908152602081905260409020546115479082610fa0565b6001600160a01b0383166000818152602081815260408083209490945583518581529351929391927fddf252ad1be2c89b69c2b068fc378daa952ba7f163c4a11628f55a4df523b3ef9281900390910190a35050565b6001600160a01b0382166115e25760405162461bcd60e51b8152600401808060200182810382526021815260200180611b0c6021913960400191505060405180910390fd5b6115ee82600083611712565b61162b816040518060600160405280602281526020016119bf602291396001600160a01b0385166000908152602081905260409020549190611344565b6001600160a01b03831660009081526020819052604090205560025461165190826117da565b6002556040805182815290516000916001600160a01b038516917fddf252ad1be2c89b69c2b068fc378daa952ba7f163c4a11628f55a4df523b3ef9181900360200190a35050565b6000610cc5838361181c565b60006106d582611880565b60006116bc83836116fa565b6116f2575081546001818101845560008481526020808220909301849055845484825282860190935260409020919091556106d5565b5060006106d5565b60009081526001919091016020526040902054151590565b61172a600080516020611a7383398151915283610ccc565b156117665760405162461bcd60e51b8152600401808060200182810382526024815260200180611a4f6024913960400191505060405180910390fd5b61177e600080516020611a7383398151915284610ccc565b156117ba5760405162461bcd60e51b8152600401808060200182810382526021815260200180611ac36021913960400191505060405180910390fd5b61105e83838361100f565b6000610cc5836001600160a01b038416611884565b6000610cc583836040518060400160405280601e81526020017f536166654d6174683a207375627472616374696f6e206f766572666c6f770000815250611344565b8154600090821061185e5760405162461bcd60e51b815260040180806020018281038252602281526020018061194b6022913960400191505060405180910390fd5b82600001828154811061186d57fe5b9060005260206000200154905092915050565b5490565b6000818152600183016020526040812054801561194057835460001980830191908101906000908790839081106118b757fe5b90600052602060002001549050808760000184815481106118d457fe5b60009182526020808320909101929092558281526001898101909252604090209084019055865487908061190457fe5b600190038181906000526020600020016000905590558660010160008781526020019081526020016000206000905560019450505050506106d5565b60009150506106d556fe456e756d657261626c655365743a20696e646578206f7574206f6620626f756e647345524332303a207472616e7366657220746f20746865207a65726f2061646472657373416363657373436f6e74726f6c3a2073656e646572206d75737420626520616e2061646d696e20746f206772616e7445524332303a206275726e20616d6f756e7420657863656564732062616c616e63654f776e61626c653a206e6577206f776e657220697320746865207a65726f206164647265737345524332303a20617070726f766520746f20746865207a65726f206164647265737345524332303a207472616e7366657220616d6f756e7420657863656564732062616c616e63654d7573742062652077686974656c697374656420746f207265636965766520746f6b656ef2425cfa498428d50262e5c9f5ffff70e5db63850c3b7c7c7490b5bdfa94ca40416363657373436f6e74726f6c3a2073656e646572206d75737420626520616e2061646d696e20746f207265766f6b654d7573742062652077686974656c697374656420746f2073656e6420746f6b656e45524332303a207472616e7366657220616d6f756e74206578636565647320616c6c6f77616e636545524332303a206275726e2066726f6d20746865207a65726f206164647265737345524332303a207472616e736665722066726f6d20746865207a65726f206164647265737345524332303a20617070726f76652066726f6d20746865207a65726f206164647265737345524332303a2064656372656173656420616c6c6f77616e63652062656c6f77207a65726f416363657373436f6e74726f6c3a2063616e206f6e6c792072656e6f756e636520726f6c657320666f722073656c6645524332305061757361626c653a20746f6b656e207472616e73666572207768696c6520706175736564a26469706673582212205b831ff5425a55129baacce6283e0b70f9292b14e1595bf4f394d054ca48a83664736f6c634300070000334d7573742062652077686974656c697374656420746f207265636965766520746f6b656ef2425cfa498428d50262e5c9f5ffff70e5db63850c3b7c7c7490b5bdfa94ca404d7573742062652077686974656c697374656420746f2073656e6420746f6b656e45524332305061757361626c653a20746f6b656e207472616e73666572207768696c6520706175736564",
  "immutableReferences": {},
  "source": "// SPDX-License-Identifier: MIT\n\npragma solidity ^0.7.0;\n\nimport \"@openzeppelin/contracts/token/ERC20/ERC20.sol\";\nimport \"@openzeppelin/contracts/access/Ownable.sol\";\nimport \"@openzeppelin/contracts/access/AccessControl.sol\";\nimport \"@openzeppelin/contracts/token/ERC20/ERC20Burnable.sol\";\nimport \"@openzeppelin/contracts/token/ERC20/ERC20Capped.sol\";\nimport \"@openzeppelin/contracts/token/ERC20/ERC20Pausable.sol\";\nimport \"@openzeppelin/contracts/math/SafeMath.sol\"; \n\n\n/**\n * @title TokenRecover\n * @dev Allow to recover any ERC20 sent into the contract for error\n */\ncontract TokenRecover is Ownable {\n\n    /**\n     * @dev Remember that only owner can call so be careful when use on contracts generated from other contracts.\n     * @param tokenAddress The token contract address\n     * @param tokenAmount Number of tokens to be sent\n     */\n    function recoverERC20(address tokenAddress, uint256 tokenAmount) public onlyOwner {\n        IERC20(tokenAddress).transfer(owner(), tokenAmount);\n    }\n}\n\n\ncontract PERC20  is ERC20Capped, ERC20Burnable,ERC20Pausable, TokenRecover, AccessControl {\n    bytes32 public constant MINTER_ROLE = keccak256(\"MINTER_ROLE\");\n    bytes32 public constant BURNER_ROLE = keccak256(\"BURNER_ROLE\");\n    bytes32 public constant FREEZED_ROLE = keccak256(\"FREEZED_ROLE\");\n\n    /**\n     */\n    constructor()\n        ERC20Capped(100 * 1e20)\n        ERC20(\"PERC20 Token\", \"PERC20\")\n    {\n        uint8 decimals = 18;\n        uint256 initialSupply = 1e18;\n\n        _setupDecimals(decimals);\n\n        _setupRole(DEFAULT_ADMIN_ROLE, _msgSender());\n        _setupRole(MINTER_ROLE, _msgSender());\n        _setupRole(BURNER_ROLE, _msgSender());\n\n        if (initialSupply > 0) {\n            _mint(owner(), initialSupply);\n        }\n\n    }\n\n\n    function mint(address to, uint256 value) public {\n        require(!hasRole(FREEZED_ROLE, to), \"Must be whitelisted to recieve token\");\n        require(hasRole(MINTER_ROLE, msg.sender), \"Caller is not a minter\");\n        _mint(to, value);\n    }\n\n    function burn(uint256 amount) public  \n    virtual override(ERC20Burnable)\n    {\n        require(hasRole(BURNER_ROLE, _msgSender()), \"Caller is not a burner\");\n        _burn(_msgSender(), amount);\n    }\n\n    function burnFrom(address account, uint256 amount) public  \n    virtual override(ERC20Burnable)\n    {\n        require(hasRole(BURNER_ROLE, _msgSender()), \"Caller is not a burner\");\n        _burn(account, amount);\n    }\n\n     /**\n     * @dev See {ERC20-_beforeTokenTransfer}.\n     */\n    function _beforeTokenTransfer(address from, address to, uint256 amount) \n    internal \n    virtual override(ERC20, ERC20Capped, ERC20Pausable) \n    {\n        require(!hasRole(FREEZED_ROLE, to), \"Must be whitelisted to recieve token\");\n        require(!hasRole(FREEZED_ROLE, from), \"Must be whitelisted to send token\");\n        super._beforeTokenTransfer(from, to, amount);\n    }\n\n}",
  "sourcePath": "R:/02_Task/038_20210223_PowerfulERC20/work/PERC20/contracts/PERC20.sol",
  "compiler": {
    "name": "solc",
    "version": "0.7.0+commit.9e61f92b.Emscripten.clang"
  },
  "schemaVersion": "3.3.3",
  "updatedAt": "2021-02-23T04:57:21.056Z",
  "devdoc": {
    "kind": "dev",
    "methods": {
      "allowance(address,address)": {
        "details": "See {IERC20-allowance}."
      },
      "approve(address,uint256)": {
        "details": "See {IERC20-approve}. Requirements: - `spender` cannot be the zero address."
      },
      "balanceOf(address)": {
        "details": "See {IERC20-balanceOf}."
      },
      "burn(uint256)": {
        "details": "Destroys `amount` tokens from the caller. See {ERC20-_burn}."
      },
      "burnFrom(address,uint256)": {
        "details": "Destroys `amount` tokens from `account`, deducting from the caller's allowance. See {ERC20-_burn} and {ERC20-allowance}. Requirements: - the caller must have allowance for ``accounts``'s tokens of at least `amount`."
      },
      "cap()": {
        "details": "Returns the cap on the token's total supply."
      },
      "decimals()": {
        "details": "Returns the number of decimals used to get its user representation. For example, if `decimals` equals `2`, a balance of `505` tokens should be displayed to a user as `5,05` (`505 / 10 ** 2`). Tokens usually opt for a value of 18, imitating the relationship between Ether and Wei. This is the value {ERC20} uses, unless {_setupDecimals} is called. NOTE: This information is only used for _display_ purposes: it in no way affects any of the arithmetic of the contract, including {IERC20-balanceOf} and {IERC20-transfer}."
      },
      "decreaseAllowance(address,uint256)": {
        "details": "Atomically decreases the allowance granted to `spender` by the caller. This is an alternative to {approve} that can be used as a mitigation for problems described in {IERC20-approve}. Emits an {Approval} event indicating the updated allowance. Requirements: - `spender` cannot be the zero address. - `spender` must have allowance for the caller of at least `subtractedValue`."
      },
      "getRoleAdmin(bytes32)": {
        "details": "Returns the admin role that controls `role`. See {grantRole} and {revokeRole}. To change a role's admin, use {_setRoleAdmin}."
      },
      "getRoleMember(bytes32,uint256)": {
        "details": "Returns one of the accounts that have `role`. `index` must be a value between 0 and {getRoleMemberCount}, non-inclusive. Role bearers are not sorted in any particular way, and their ordering may change at any point. WARNING: When using {getRoleMember} and {getRoleMemberCount}, make sure you perform all queries on the same block. See the following https://forum.openzeppelin.com/t/iterating-over-elements-on-enumerableset-in-openzeppelin-contracts/2296[forum post] for more information."
      },
      "getRoleMemberCount(bytes32)": {
        "details": "Returns the number of accounts that have `role`. Can be used together with {getRoleMember} to enumerate all bearers of a role."
      },
      "grantRole(bytes32,address)": {
        "details": "Grants `role` to `account`. If `account` had not been already granted `role`, emits a {RoleGranted} event. Requirements: - the caller must have ``role``'s admin role."
      },
      "hasRole(bytes32,address)": {
        "details": "Returns `true` if `account` has been granted `role`."
      },
      "increaseAllowance(address,uint256)": {
        "details": "Atomically increases the allowance granted to `spender` by the caller. This is an alternative to {approve} that can be used as a mitigation for problems described in {IERC20-approve}. Emits an {Approval} event indicating the updated allowance. Requirements: - `spender` cannot be the zero address."
      },
      "name()": {
        "details": "Returns the name of the token."
      },
      "owner()": {
        "details": "Returns the address of the current owner."
      },
      "paused()": {
        "details": "Returns true if the contract is paused, and false otherwise."
      },
      "recoverERC20(address,uint256)": {
        "details": "Remember that only owner can call so be careful when use on contracts generated from other contracts.",
        "params": {
          "tokenAddress": "The token contract address",
          "tokenAmount": "Number of tokens to be sent"
        }
      },
      "renounceOwnership()": {
        "details": "Leaves the contract without owner. It will not be possible to call `onlyOwner` functions anymore. Can only be called by the current owner. NOTE: Renouncing ownership will leave the contract without an owner, thereby removing any functionality that is only available to the owner."
      },
      "renounceRole(bytes32,address)": {
        "details": "Revokes `role` from the calling account. Roles are often managed via {grantRole} and {revokeRole}: this function's purpose is to provide a mechanism for accounts to lose their privileges if they are compromised (such as when a trusted device is misplaced). If the calling account had been granted `role`, emits a {RoleRevoked} event. Requirements: - the caller must be `account`."
      },
      "revokeRole(bytes32,address)": {
        "details": "Revokes `role` from `account`. If `account` had been granted `role`, emits a {RoleRevoked} event. Requirements: - the caller must have ``role``'s admin role."
      },
      "symbol()": {
        "details": "Returns the symbol of the token, usually a shorter version of the name."
      },
      "totalSupply()": {
        "details": "See {IERC20-totalSupply}."
      },
      "transfer(address,uint256)": {
        "details": "See {IERC20-transfer}. Requirements: - `recipient` cannot be the zero address. - the caller must have a balance of at least `amount`."
      },
      "transferFrom(address,address,uint256)": {
        "details": "See {IERC20-transferFrom}. Emits an {Approval} event indicating the updated allowance. This is not required by the EIP. See the note at the beginning of {ERC20}; Requirements: - `sender` and `recipient` cannot be the zero address. - `sender` must have a balance of at least `amount`. - the caller must have allowance for ``sender``'s tokens of at least `amount`."
      },
      "transferOwnership(address)": {
        "details": "Transfers ownership of the contract to a new account (`newOwner`). Can only be called by the current owner."
      }
    },
    "version": 1
  },
  "userdoc": {
    "kind": "user",
    "methods": {},
    "version": 1
  }
}